{
  "contractName": "Loto",
  "abi": [
    {
      "constant": true,
      "inputs": [],
      "name": "currentState",
      "outputs": [
        {
          "name": "",
          "type": "uint8"
        }
      ],
      "payable": false,
      "stateMutability": "view",
      "type": "function"
    },
    {
      "constant": true,
      "inputs": [],
      "name": "winnerN",
      "outputs": [
        {
          "name": "",
          "type": "uint256"
        }
      ],
      "payable": false,
      "stateMutability": "view",
      "type": "function"
    },
    {
      "constant": false,
      "inputs": [
        {
          "name": "_oraclizeID",
          "type": "bytes32"
        },
        {
          "name": "_result",
          "type": "string"
        }
      ],
      "name": "__callback",
      "outputs": [],
      "payable": false,
      "stateMutability": "nonpayable",
      "type": "function"
    },
    {
      "constant": false,
      "inputs": [
        {
          "name": "myid",
          "type": "bytes32"
        },
        {
          "name": "result",
          "type": "string"
        },
        {
          "name": "proof",
          "type": "bytes"
        }
      ],
      "name": "__callback",
      "outputs": [],
      "payable": false,
      "stateMutability": "nonpayable",
      "type": "function"
    },
    {
      "constant": false,
      "inputs": [],
      "name": "withdraw",
      "outputs": [],
      "payable": false,
      "stateMutability": "nonpayable",
      "type": "function"
    },
    {
      "constant": false,
      "inputs": [],
      "name": "roundStart",
      "outputs": [],
      "payable": false,
      "stateMutability": "nonpayable",
      "type": "function"
    },
    {
      "constant": true,
      "inputs": [
        {
          "name": "",
          "type": "uint256"
        }
      ],
      "name": "tickets",
      "outputs": [
        {
          "name": "",
          "type": "address"
        }
      ],
      "payable": false,
      "stateMutability": "view",
      "type": "function"
    },
    {
      "constant": true,
      "inputs": [],
      "name": "owner",
      "outputs": [
        {
          "name": "",
          "type": "address"
        }
      ],
      "payable": false,
      "stateMutability": "view",
      "type": "function"
    },
    {
      "constant": true,
      "inputs": [
        {
          "name": "tick",
          "type": "uint256"
        }
      ],
      "name": "get",
      "outputs": [
        {
          "name": "",
          "type": "uint256"
        },
        {
          "name": "",
          "type": "uint256"
        },
        {
          "name": "",
          "type": "address"
        }
      ],
      "payable": false,
      "stateMutability": "view",
      "type": "function"
    },
    {
      "constant": false,
      "inputs": [],
      "name": "selfDestruct",
      "outputs": [],
      "payable": false,
      "stateMutability": "nonpayable",
      "type": "function"
    },
    {
      "constant": true,
      "inputs": [],
      "name": "ticketsN",
      "outputs": [
        {
          "name": "",
          "type": "uint256"
        }
      ],
      "payable": false,
      "stateMutability": "view",
      "type": "function"
    },
    {
      "constant": false,
      "inputs": [],
      "name": "EnterRound",
      "outputs": [],
      "payable": true,
      "stateMutability": "payable",
      "type": "function"
    },
    {
      "constant": true,
      "inputs": [],
      "name": "oraclizeID",
      "outputs": [
        {
          "name": "",
          "type": "bytes32"
        }
      ],
      "payable": false,
      "stateMutability": "view",
      "type": "function"
    },
    {
      "constant": true,
      "inputs": [
        {
          "name": "",
          "type": "address"
        }
      ],
      "name": "rewardClaimable",
      "outputs": [
        {
          "name": "",
          "type": "bool"
        }
      ],
      "payable": false,
      "stateMutability": "view",
      "type": "function"
    },
    {
      "inputs": [
        {
          "name": "escrow_",
          "type": "address"
        }
      ],
      "payable": false,
      "stateMutability": "nonpayable",
      "type": "constructor"
    },
    {
      "payable": true,
      "stateMutability": "payable",
      "type": "fallback"
    },
    {
      "anonymous": false,
      "inputs": [
        {
          "indexed": false,
          "name": "closingBlock",
          "type": "uint256"
        }
      ],
      "name": "RoundStarted",
      "type": "event"
    }
  ],
  "bytecode": "0x606060405266b1a2bc2ec5000060055560646006556000600a556207a120601055341561002b57600080fd5b604051602080612a438339810160405280805190602001909190505033600860006101000a81548173ffffffffffffffffffffffffffffffffffffffff021916908373ffffffffffffffffffffffffffffffffffffffff1602179055506000600d60006101000a81548160ff021916908360028111156100a757fe5b0217905550736f485c8bf6fc43ea212e93bbf8ce046c7f1cb4756000806101000a81548173ffffffffffffffffffffffffffffffffffffffff021916908373ffffffffffffffffffffffffffffffffffffffff16021790555080600760006101000a81548173ffffffffffffffffffffffffffffffffffffffff021916908373ffffffffffffffffffffffffffffffffffffffff160217905550506128f2806101516000396000f3006060604052600436106100d0576000357c0100000000000000000000000000000000000000000000000000000000900463ffffffff1680630c3f6acf146100d25780630e543f421461010957806327dc297e1461013257806338bbfa501461019c5780633ccfd60b14610249578063403658521461025e57806350b44712146102735780638da5cb5b146102d65780639507d39a1461032b5780639cb8a26a1461039c578063c33acf2f146103b1578063ca3c2333146103da578063d98645c5146103e4578063e8c33f6314610415575b005b34156100dd57600080fd5b6100e5610466565b604051808260028111156100f557fe5b60ff16815260200191505060405180910390f35b341561011457600080fd5b61011c610479565b6040518082815260200191505060405180910390f35b341561013d57600080fd5b61019a60048080356000191690602001909190803590602001908201803590602001908080601f0160208091040260200160405190810160405280939291908181526020018383808284378201915050505050509190505061047f565b005b34156101a757600080fd5b61024760048080356000191690602001909190803590602001908201803590602001908080601f0160208091040260200160405190810160405280939291908181526020018383808284378201915050505050509190803590602001908201803590602001908080601f016020809104026020016040519081016040528093929190818152602001838380828437820191505050505050919050506105ad565b005b341561025457600080fd5b61025c6105b2565b005b341561026957600080fd5b61027161071c565b005b341561027e57600080fd5b61029460048080359060200190919050506107d2565b604051808273ffffffffffffffffffffffffffffffffffffffff1673ffffffffffffffffffffffffffffffffffffffff16815260200191505060405180910390f35b34156102e157600080fd5b6102e9610805565b604051808273ffffffffffffffffffffffffffffffffffffffff1673ffffffffffffffffffffffffffffffffffffffff16815260200191505060405180910390f35b341561033657600080fd5b61034c600480803590602001909190505061082b565b604051808481526020018381526020018273ffffffffffffffffffffffffffffffffffffffff1673ffffffffffffffffffffffffffffffffffffffff168152602001935050505060405180910390f35b34156103a757600080fd5b6103af610877565b005b34156103bc57600080fd5b6103c461090e565b6040518082815260200191505060405180910390f35b6103e2610914565b005b34156103ef57600080fd5b6103f7610b22565b60405180826000191660001916815260200191505060405180910390f35b341561042057600080fd5b61044c600480803573ffffffffffffffffffffffffffffffffffffffff16906020019091905050610b28565b604051808215151515815260200191505060405180910390f35b600d60009054906101000a900460ff1681565b600e5481565b610487610b48565b73ffffffffffffffffffffffffffffffffffffffff163373ffffffffffffffffffffffffffffffffffffffff161415156104c057600080fd5b6002808111156104cc57fe5b600d60009054906101000a900460ff1660028111156104e757fe5b14156104fa576104f5610e5e565b6105a9565b61050381610f0f565b600e819055506001600b600060096000600e54815260200190815260200160002060009054906101000a900473ffffffffffffffffffffffffffffffffffffffff1673ffffffffffffffffffffffffffffffffffffffff1673ffffffffffffffffffffffffffffffffffffffff16815260200190815260200160002060006101000a81548160ff021916908315150217905550669c51c4521e0000600a5402600c819055505b5050565b505050565b60096000600e54815260200190815260200160002060009054906101000a900473ffffffffffffffffffffffffffffffffffffffff1673ffffffffffffffffffffffffffffffffffffffff163373ffffffffffffffffffffffffffffffffffffffff1614151561062157600080fd5b60011515600b60003373ffffffffffffffffffffffffffffffffffffffff1673ffffffffffffffffffffffffffffffffffffffff16815260200190815260200160002060009054906101000a900460ff16151514151561068057600080fd5b6000600b60003373ffffffffffffffffffffffffffffffffffffffff1673ffffffffffffffffffffffffffffffffffffffff16815260200190815260200160002060006101000a81548160ff0219169083151502179055503373ffffffffffffffffffffffffffffffffffffffff166108fc600c549081150290604051600060405180830381858888f19350505050151561071a57600080fd5b565b600860009054906101000a900473ffffffffffffffffffffffffffffffffffffffff1673ffffffffffffffffffffffffffffffffffffffff163373ffffffffffffffffffffffffffffffffffffffff1614151561077857600080fd5b6000600281111561078557fe5b600d60009054906101000a900460ff1660028111156107a057fe5b1415156107ac57600080fd5b6001600d60006101000a81548160ff021916908360028111156107cb57fe5b0217905550565b60096020528060005260406000206000915054906101000a900473ffffffffffffffffffffffffffffffffffffffff1681565b600860009054906101000a900473ffffffffffffffffffffffffffffffffffffffff1681565b6000806000600554600a546009600087815260200190815260200160002060009054906101000a900473ffffffffffffffffffffffffffffffffffffffff169250925092509193909250565b600860009054906101000a900473ffffffffffffffffffffffffffffffffffffffff1673ffffffffffffffffffffffffffffffffffffffff163373ffffffffffffffffffffffffffffffffffffffff161415156108d357600080fd5b600860009054906101000a900473ffffffffffffffffffffffffffffffffffffffff1673ffffffffffffffffffffffffffffffffffffffff16ff5b600a5481565b600554341015151561092557600080fd5b6000600281111561093257fe5b600d60009054906101000a900460ff16600281111561094d57fe5b1415151561095a57600080fd5b6103e8600a54111515610a4357600a600081548092919060010191905055503360096000600a54815260200190815260200160002060006101000a81548173ffffffffffffffffffffffffffffffffffffffff021916908373ffffffffffffffffffffffffffffffffffffffff160217905550600760009054906101000a900473ffffffffffffffffffffffffffffffffffffffff1673ffffffffffffffffffffffffffffffffffffffff166108fc6064600a3402811515610a1857fe5b049081150290604051600060405180830381858888f193505050501515610a3e57600080fd5b610b0c565b600a600081548092919060010191905055503360096000600a54815260200190815260200160002060006101000a81548173ffffffffffffffffffffffffffffffffffffffff021916908373ffffffffffffffffffffffffffffffffffffffff160217905550600760009054906101000a900473ffffffffffffffffffffffffffffffffffffffff1673ffffffffffffffffffffffffffffffffffffffff166108fc349081150290604051600060405180830381858888f193505050501515610b0b57600080fd5b5b6003600a541415610b2057610b1f610f23565b5b565b600f5481565b600b6020528060005260406000206000915054906101000a900460ff1681565b6000806000809054906101000a900473ffffffffffffffffffffffffffffffffffffffff1673ffffffffffffffffffffffffffffffffffffffff161480610bb857506000610bb66000809054906101000a900473ffffffffffffffffffffffffffffffffffffffff16610fc3565b145b15610bc957610bc76000610fce565b505b6000809054906101000a900473ffffffffffffffffffffffffffffffffffffffff1673ffffffffffffffffffffffffffffffffffffffff166338cc48316000604051602001526040518163ffffffff167c0100000000000000000000000000000000000000000000000000000000028152600401602060405180830381600087803b1515610c5657600080fd5b6102c65a03f11515610c6757600080fd5b5050506040518051905073ffffffffffffffffffffffffffffffffffffffff16600160009054906101000a900473ffffffffffffffffffffffffffffffffffffffff1673ffffffffffffffffffffffffffffffffffffffff16141515610db0576000809054906101000a900473ffffffffffffffffffffffffffffffffffffffff1673ffffffffffffffffffffffffffffffffffffffff166338cc48316000604051602001526040518163ffffffff167c0100000000000000000000000000000000000000000000000000000000028152600401602060405180830381600087803b1515610d5457600080fd5b6102c65a03f11515610d6557600080fd5b50505060405180519050600160006101000a81548173ffffffffffffffffffffffffffffffffffffffff021916908373ffffffffffffffffffffffffffffffffffffffff1602179055505b600160009054906101000a900473ffffffffffffffffffffffffffffffffffffffff1673ffffffffffffffffffffffffffffffffffffffff1663c281d19e6000604051602001526040518163ffffffff167c0100000000000000000000000000000000000000000000000000000000028152600401602060405180830381600087803b1515610e3e57600080fd5b6102c65a03f11515610e4f57600080fd5b50505060405180519050905090565b6000600d60006101000a81548160ff02191690836002811115610e7d57fe5b0217905550610f0c6040805190810160405280600c81526020017f576f6c6672616d416c7068610000000000000000000000000000000000000000815250610f046040805190810160405280601581526020017f72616e646f6d206265747765656e203120616e64200000000000000000000000815250610eff600a54610fdf565b611131565b60105461117e565b50565b6000610f1c8260006116ce565b9050919050565b6002600d60006101000a81548160ff02191690836002811115610f4257fe5b0217905550610fc060146040805190810160405280600c81526020017f576f6c6672616d416c70686100000000000000000000000000000000000000008152506040805190810160405280600581526020017f31202b20330000000000000000000000000000000000000000000000000000008152506010546119c8565b50565b6000813b9050919050565b6000610fd8611f18565b9050919050565b610fe76127f9565b600080610ff261280d565b600080861415611039576040805190810160405280600181526020017f30000000000000000000000000000000000000000000000000000000000000008152509450611128565b8593505b600084141515611063578280600101935050600a8481151561105b57fe5b04935061103d565b826040518059106110715750595b9080825280601f01601f191660200182016040525091506001830390505b60008614151561112457600a868115156110a557fe5b066030017f0100000000000000000000000000000000000000000000000000000000000000028282806001900393508151811015156110e057fe5b9060200101907effffffffffffffffffffffffffffffffffffffffffffffffffffffffffffff1916908160001a905350600a8681151561111c57fe5b04955061108f565b8194505b50505050919050565b6111396127f9565b61117683836020604051908101604052806000815250602060405190810160405280600081525060206040519081016040528060008152506123a7565b905092915050565b60008060008060009054906101000a900473ffffffffffffffffffffffffffffffffffffffff1673ffffffffffffffffffffffffffffffffffffffff1614806111f0575060006111ee6000809054906101000a900473ffffffffffffffffffffffffffffffffffffffff16610fc3565b145b15611201576111ff6000610fce565b505b6000809054906101000a900473ffffffffffffffffffffffffffffffffffffffff1673ffffffffffffffffffffffffffffffffffffffff166338cc48316000604051602001526040518163ffffffff167c0100000000000000000000000000000000000000000000000000000000028152600401602060405180830381600087803b151561128e57600080fd5b6102c65a03f1151561129f57600080fd5b5050506040518051905073ffffffffffffffffffffffffffffffffffffffff16600160009054906101000a900473ffffffffffffffffffffffffffffffffffffffff1673ffffffffffffffffffffffffffffffffffffffff161415156113e8576000809054906101000a900473ffffffffffffffffffffffffffffffffffffffff1673ffffffffffffffffffffffffffffffffffffffff166338cc48316000604051602001526040518163ffffffff167c0100000000000000000000000000000000000000000000000000000000028152600401602060405180830381600087803b151561138c57600080fd5b6102c65a03f1151561139d57600080fd5b50505060405180519050600160006101000a81548173ffffffffffffffffffffffffffffffffffffffff021916908373ffffffffffffffffffffffffffffffffffffffff1602179055505b600160009054906101000a900473ffffffffffffffffffffffffffffffffffffffff1673ffffffffffffffffffffffffffffffffffffffff16632ef3accc86856000604051602001526040518363ffffffff167c01000000000000000000000000000000000000000000000000000000000281526004018080602001838152602001828103825284818151815260200191508051906020019080838360005b838110156114a2578082015181840152602081019050611487565b50505050905090810190601f1680156114cf5780820380516001836020036101000a031916815260200191505b509350505050602060405180830381600087803b15156114ee57600080fd5b6102c65a03f115156114ff57600080fd5b505050604051805190509050823a02670de0b6b3a76400000181111561152b57600060010291506116c6565b600160009054906101000a900473ffffffffffffffffffffffffffffffffffffffff1673ffffffffffffffffffffffffffffffffffffffff1663c51be90f8260008888886000604051602001526040518663ffffffff167c0100000000000000000000000000000000000000000000000000000000028152600401808581526020018060200180602001848152602001838103835286818151815260200191508051906020019080838360005b838110156115f35780820151818401526020810190506115d8565b50505050905090810190601f1680156116205780820380516001836020036101000a031916815260200191505b50838103825285818151815260200191508051906020019080838360005b8381101561165957808201518184015260208101905061163e565b50505050905090810190601f1680156116865780820380516001836020036101000a031916815260200191505b5096505050505050506020604051808303818588803b15156116a757600080fd5b6125ee5a03f115156116b857600080fd5b505050506040518051905091505b509392505050565b60006116d861280d565b60008060008693506000925060009150600090505b83518110156119a95760307f010000000000000000000000000000000000000000000000000000000000000002848281518110151561172857fe5b9060200101517f010000000000000000000000000000000000000000000000000000000000000090047f0100000000000000000000000000000000000000000000000000000000000000027effffffffffffffffffffffffffffffffffffffffffffffffffffffffffffff191610158015611840575060397f01000000000000000000000000000000000000000000000000000000000000000284828151811015156117d057fe5b9060200101517f010000000000000000000000000000000000000000000000000000000000000090047f0100000000000000000000000000000000000000000000000000000000000000027effffffffffffffffffffffffffffffffffffffffffffffffffffffffffffff191611155b156118f1578115611863576000861415611859576119a9565b8580600190039650505b600a830292506030848281518110151561187957fe5b9060200101517f010000000000000000000000000000000000000000000000000000000000000090047f0100000000000000000000000000000000000000000000000000000000000000027f01000000000000000000000000000000000000000000000000000000000000009004038301925061199c565b602e7f010000000000000000000000000000000000000000000000000000000000000002848281518110151561192357fe5b9060200101517f010000000000000000000000000000000000000000000000000000000000000090047f0100000000000000000000000000000000000000000000000000000000000000027effffffffffffffffffffffffffffffffffffffffffffffffffffffffffffff1916141561199b57600191505b5b80806001019150506116ed565b60008611156119bb5785600a0a830292505b8294505050505092915050565b60008060008060009054906101000a900473ffffffffffffffffffffffffffffffffffffffff1673ffffffffffffffffffffffffffffffffffffffff161480611a3a57506000611a386000809054906101000a900473ffffffffffffffffffffffffffffffffffffffff16610fc3565b145b15611a4b57611a496000610fce565b505b6000809054906101000a900473ffffffffffffffffffffffffffffffffffffffff1673ffffffffffffffffffffffffffffffffffffffff166338cc48316000604051602001526040518163ffffffff167c0100000000000000000000000000000000000000000000000000000000028152600401602060405180830381600087803b1515611ad857600080fd5b6102c65a03f11515611ae957600080fd5b5050506040518051905073ffffffffffffffffffffffffffffffffffffffff16600160009054906101000a900473ffffffffffffffffffffffffffffffffffffffff1673ffffffffffffffffffffffffffffffffffffffff16141515611c32576000809054906101000a900473ffffffffffffffffffffffffffffffffffffffff1673ffffffffffffffffffffffffffffffffffffffff166338cc48316000604051602001526040518163ffffffff167c0100000000000000000000000000000000000000000000000000000000028152600401602060405180830381600087803b1515611bd657600080fd5b6102c65a03f11515611be757600080fd5b50505060405180519050600160006101000a81548173ffffffffffffffffffffffffffffffffffffffff021916908373ffffffffffffffffffffffffffffffffffffffff1602179055505b600160009054906101000a900473ffffffffffffffffffffffffffffffffffffffff1673ffffffffffffffffffffffffffffffffffffffff16632ef3accc86856000604051602001526040518363ffffffff167c01000000000000000000000000000000000000000000000000000000000281526004018080602001838152602001828103825284818151815260200191508051906020019080838360005b83811015611cec578082015181840152602081019050611cd1565b50505050905090810190601f168015611d195780820380516001836020036101000a031916815260200191505b509350505050602060405180830381600087803b1515611d3857600080fd5b6102c65a03f11515611d4957600080fd5b505050604051805190509050823a02670de0b6b3a764000001811115611d755760006001029150611f0f565b600160009054906101000a900473ffffffffffffffffffffffffffffffffffffffff1673ffffffffffffffffffffffffffffffffffffffff1663c51be90f82888888886000604051602001526040518663ffffffff167c0100000000000000000000000000000000000000000000000000000000028152600401808581526020018060200180602001848152602001838103835286818151815260200191508051906020019080838360005b83811015611e3c578082015181840152602081019050611e21565b50505050905090810190601f168015611e695780820380516001836020036101000a031916815260200191505b50838103825285818151815260200191508051906020019080838360005b83811015611ea2578082015181840152602081019050611e87565b50505050905090810190601f168015611ecf5780820380516001836020036101000a031916815260200191505b5096505050505050506020604051808303818588803b1515611ef057600080fd5b6125ee5a03f11515611f0157600080fd5b505050506040518051905091505b50949350505050565b600080611f38731d3b2638a7cc9f2cb3d298a3da7a90b67e5506ed610fc3565b1115611fd957731d3b2638a7cc9f2cb3d298a3da7a90b67e5506ed6000806101000a81548173ffffffffffffffffffffffffffffffffffffffff021916908373ffffffffffffffffffffffffffffffffffffffff160217905550611fd06040805190810160405280600b81526020017f6574685f6d61696e6e65740000000000000000000000000000000000000000008152506127df565b600190506123a4565b6000611ff873c03a2615d5efaf5f49f60b7bb6583eaec212fdf1610fc3565b11156120995773c03a2615d5efaf5f49f60b7bb6583eaec212fdf16000806101000a81548173ffffffffffffffffffffffffffffffffffffffff021916908373ffffffffffffffffffffffffffffffffffffffff1602179055506120906040805190810160405280600c81526020017f6574685f726f707374656e3300000000000000000000000000000000000000008152506127df565b600190506123a4565b60006120b873b7a07bcf2ba2f2703b24c0691b5278999c59ac7e610fc3565b11156121595773b7a07bcf2ba2f2703b24c0691b5278999c59ac7e6000806101000a81548173ffffffffffffffffffffffffffffffffffffffff021916908373ffffffffffffffffffffffffffffffffffffffff1602179055506121506040805190810160405280600981526020017f6574685f6b6f76616e00000000000000000000000000000000000000000000008152506127df565b600190506123a4565b600061217873146500cfd35b22e4a392fe0adc06de1a1368ed48610fc3565b11156122195773146500cfd35b22e4a392fe0adc06de1a1368ed486000806101000a81548173ffffffffffffffffffffffffffffffffffffffff021916908373ffffffffffffffffffffffffffffffffffffffff1602179055506122106040805190810160405280600b81526020017f6574685f72696e6b6562790000000000000000000000000000000000000000008152506127df565b600190506123a4565b6000612238736f485c8bf6fc43ea212e93bbf8ce046c7f1cb475610fc3565b111561229b57736f485c8bf6fc43ea212e93bbf8ce046c7f1cb4756000806101000a81548173ffffffffffffffffffffffffffffffffffffffff021916908373ffffffffffffffffffffffffffffffffffffffff160217905550600190506123a4565b60006122ba7320e12a1f859b3feae5fb2a0a32c18f5a65555bbf610fc3565b111561231d577320e12a1f859b3feae5fb2a0a32c18f5a65555bbf6000806101000a81548173ffffffffffffffffffffffffffffffffffffffff021916908373ffffffffffffffffffffffffffffffffffffffff160217905550600190506123a4565b600061233c7351efaf4c8b3c9afbd5ab9f4bbc82784ab6ef8faa610fc3565b111561239f577351efaf4c8b3c9afbd5ab9f4bbc82784ab6ef8faa6000806101000a81548173ffffffffffffffffffffffffffffffffffffffff021916908373ffffffffffffffffffffffffffffffffffffffff160217905550600190506123a4565b600090505b90565b6123af6127f9565b6123b761280d565b6123bf61280d565b6123c761280d565b6123cf61280d565b6123d761280d565b6123df6127f9565b6123e761280d565b6000808e98508d97508c96508b95508a94508451865188518a518c51010101016040518059106124145750595b9080825280601f01601f1916602001820160405250935083925060009150600090505b88518110156124ea57888181518110151561244e57fe5b9060200101517f010000000000000000000000000000000000000000000000000000000000000090047f01000000000000000000000000000000000000000000000000000000000000000283838060010194508151811015156124ad57fe5b9060200101907effffffffffffffffffffffffffffffffffffffffffffffffffffffffffffff1916908160001a9053508080600101915050612437565b600090505b87518110156125a257878181518110151561250657fe5b9060200101517f010000000000000000000000000000000000000000000000000000000000000090047f010000000000000000000000000000000000000000000000000000000000000002838380600101945081518110151561256557fe5b9060200101907effffffffffffffffffffffffffffffffffffffffffffffffffffffffffffff1916908160001a90535080806001019150506124ef565b600090505b865181101561265a5786818151811015156125be57fe5b9060200101517f010000000000000000000000000000000000000000000000000000000000000090047f010000000000000000000000000000000000000000000000000000000000000002838380600101945081518110151561261d57fe5b9060200101907effffffffffffffffffffffffffffffffffffffffffffffffffffffffffffff1916908160001a90535080806001019150506125a7565b600090505b855181101561271257858181518110151561267657fe5b9060200101517f010000000000000000000000000000000000000000000000000000000000000090047f01000000000000000000000000000000000000000000000000000000000000000283838060010194508151811015156126d557fe5b9060200101907effffffffffffffffffffffffffffffffffffffffffffffffffffffffffffff1916908160001a905350808060010191505061265f565b600090505b84518110156127ca57848181518110151561272e57fe5b9060200101517f010000000000000000000000000000000000000000000000000000000000000090047f010000000000000000000000000000000000000000000000000000000000000002838380600101945081518110151561278d57fe5b9060200101907effffffffffffffffffffffffffffffffffffffffffffffffffffffffffffff1916908160001a9053508080600101915050612717565b82995050505050505050505095945050505050565b80600290805190602001906127f5929190612821565b5050565b602060405190810160405280600081525090565b602060405190810160405280600081525090565b828054600181600116156101000203166002900490600052602060002090601f016020900481019282601f1061286257805160ff1916838001178555612890565b82800160010185558215612890579182015b8281111561288f578251825591602001919060010190612874565b5b50905061289d91906128a1565b5090565b6128c391905b808211156128bf5760008160009055506001016128a7565b5090565b905600a165627a7a72305820f66bbca940925b144a9c75ca70c59b17ba7c077caf3464c5ad7669f312dc3eab0029",
  "source": "pragma solidity ^0.4.17;\n\n//import \"github.com/oraclize/ethereum-api/oraclizeAPI.sol\";\nimport \"./oraclizeAPI.sol\";\n\n\n\ncontract Loto is usingOraclize {\n    uint price = 50 finney;\n    uint256 minUsers = 100;\n\n    address private escrow;\n    address public owner;\n    mapping(uint256 => address) public tickets;\n    uint256 public ticketsN = 0;\n    mapping(address => bool) public rewardClaimable;\n    uint private reward;\n    //uint private jackpot;\n\n    enum RoundState {noGame, roundStarted, timerStarted}\n    RoundState public currentState;\n\n    uint256 public winnerN;\n    bytes32 public oraclizeID;\n\n    uint256 gas = 500000;\n\n    modifier ownerOnly {\n        if (msg.sender != owner) \n        revert();\n        _;\n    }\n    //DEPRECATE\n    event RoundStarted(uint256 closingBlock);\n\n    function Loto(address escrow_) public {\n        owner = msg.sender;\n        currentState = RoundState.noGame;\n        OAR = OraclizeAddrResolverI(0x6f485C8BF6fc43eA212E93BBF8ce046C7f1cb475);\n        escrow = escrow_;\n    }\n\n    function roundStart() public ownerOnly {\n        //DEPRECATE THE F EVENT\n        //RoundStarted(block.number + ROUND_LENGTH);\n        require(currentState == RoundState.noGame);\n        currentState = RoundState.roundStarted;\n    }\n\n    //Main and only accessible function to clients\n    function EnterRound() payable public {\n        require(msg.value >= price);\n        require(currentState != RoundState.noGame);\n            if (ticketsN <= 1000) {\n                ticketsN++;\n                tickets[ticketsN] = msg.sender;\n                escrow.transfer((msg.value * 10)/100);\n            } else {\n                ticketsN++;\n                tickets[ticketsN] = msg.sender;\n                escrow.transfer(msg.value);\n                //event maxUserReached(...);\n            }\n            if(ticketsN == 3) {\n                setTimer();\n            }\n    }\n\n    function getWin() private {\n        currentState = RoundState.noGame;\n        oraclize_query(\"WolframAlpha\", strConcat(\"random between 1 and \", uint2str(ticketsN)),gas);\n    }\n\n    function __callback(bytes32 _oraclizeID, string _result) {\n        require(msg.sender == oraclize_cbAddress());\n        //better check with Query ID but nah, it'll be easier to demonstrate\n        //CHECK WITH QUERY ID\n        if(currentState == RoundState.timerStarted) {\n            getWin();\n        } else {\n            winnerN = parseInt(_result);\n            rewardClaimable[tickets[winnerN]] = true;\n            //10% - escrow, 2% - ours\n            reward = ticketsN * 44 finney;\n        }\n    }\n\n    function setTimer() private {\n        //This could be implemented on server side\n        currentState = RoundState.timerStarted;\n        oraclize_query(20/*864000*/,\"WolframAlpha\",\"1 + 3\", gas);\n    }\n    //Pull over push goes here\n    function withdraw() public {\n        //JUST LET HIM TAKE MONEY, JACKPOT SEPARATELLY\n        require(msg.sender == tickets[winnerN]);\n        require(rewardClaimable[msg.sender] == true);\n        rewardClaimable[msg.sender] = false;\n        msg.sender.transfer(reward);\n    }\n\n    //You don't need it, there're public accessors, just for UI sake\n    function get(uint256 tick) constant public returns (uint,uint256,address) {\n        return (price,ticketsN,tickets[tick]);\n    }\n\n    function selfDestruct() ownerOnly {\n        selfdestruct(owner);\n    }\n\n    function () payable {    \n    }\n}",
  "sourcePath": "/home/andrew/truffleTest/apptest/appt2/contracts/Loto.sol",
  "compiler": {
    "name": "solc",
    "version": "0.4.18+commit.9cf6e910.Emscripten.clang"
  },
  "schemaVersion": "1.0.1",
  "updatedAt": "2018-03-23T06:32:25.358Z"
}