{
  "contractName": "Loto",
  "abi": [
    {
      "constant": true,
      "inputs": [],
      "name": "currentState",
      "outputs": [
        {
          "name": "",
          "type": "uint8"
        }
      ],
      "payable": false,
      "stateMutability": "view",
      "type": "function"
    },
    {
      "constant": true,
      "inputs": [],
      "name": "winnerN",
      "outputs": [
        {
          "name": "",
          "type": "uint256"
        }
      ],
      "payable": false,
      "stateMutability": "view",
      "type": "function"
    },
    {
      "constant": false,
      "inputs": [
        {
          "name": "_oraclizeID",
          "type": "bytes32"
        },
        {
          "name": "_result",
          "type": "string"
        }
      ],
      "name": "__callback",
      "outputs": [],
      "payable": false,
      "stateMutability": "nonpayable",
      "type": "function"
    },
    {
      "constant": false,
      "inputs": [
        {
          "name": "myid",
          "type": "bytes32"
        },
        {
          "name": "result",
          "type": "string"
        },
        {
          "name": "proof",
          "type": "bytes"
        }
      ],
      "name": "__callback",
      "outputs": [],
      "payable": false,
      "stateMutability": "nonpayable",
      "type": "function"
    },
    {
      "constant": false,
      "inputs": [],
      "name": "withdraw",
      "outputs": [],
      "payable": false,
      "stateMutability": "nonpayable",
      "type": "function"
    },
    {
      "constant": false,
      "inputs": [],
      "name": "roundStart",
      "outputs": [],
      "payable": false,
      "stateMutability": "nonpayable",
      "type": "function"
    },
    {
      "constant": true,
      "inputs": [
        {
          "name": "",
          "type": "uint256"
        }
      ],
      "name": "tickets",
      "outputs": [
        {
          "name": "",
          "type": "address"
        }
      ],
      "payable": false,
      "stateMutability": "view",
      "type": "function"
    },
    {
      "constant": true,
      "inputs": [],
      "name": "owner",
      "outputs": [
        {
          "name": "",
          "type": "address"
        }
      ],
      "payable": false,
      "stateMutability": "view",
      "type": "function"
    },
    {
      "constant": true,
      "inputs": [
        {
          "name": "tick",
          "type": "uint256"
        }
      ],
      "name": "get",
      "outputs": [
        {
          "name": "",
          "type": "uint256"
        },
        {
          "name": "",
          "type": "uint256"
        },
        {
          "name": "",
          "type": "address"
        }
      ],
      "payable": false,
      "stateMutability": "view",
      "type": "function"
    },
    {
      "constant": false,
      "inputs": [],
      "name": "selfDestruct",
      "outputs": [],
      "payable": false,
      "stateMutability": "nonpayable",
      "type": "function"
    },
    {
      "constant": false,
      "inputs": [
        {
          "name": "_escrow",
          "type": "address"
        }
      ],
      "name": "setEscrow",
      "outputs": [],
      "payable": false,
      "stateMutability": "nonpayable",
      "type": "function"
    },
    {
      "constant": true,
      "inputs": [],
      "name": "ticketsN",
      "outputs": [
        {
          "name": "",
          "type": "uint256"
        }
      ],
      "payable": false,
      "stateMutability": "view",
      "type": "function"
    },
    {
      "constant": false,
      "inputs": [],
      "name": "EnterRound",
      "outputs": [],
      "payable": true,
      "stateMutability": "payable",
      "type": "function"
    },
    {
      "constant": true,
      "inputs": [],
      "name": "oraclizeID",
      "outputs": [
        {
          "name": "",
          "type": "bytes32"
        }
      ],
      "payable": false,
      "stateMutability": "view",
      "type": "function"
    },
    {
      "constant": true,
      "inputs": [
        {
          "name": "",
          "type": "address"
        }
      ],
      "name": "rewardClaimable",
      "outputs": [
        {
          "name": "",
          "type": "bool"
        }
      ],
      "payable": false,
      "stateMutability": "view",
      "type": "function"
    },
    {
      "inputs": [],
      "payable": false,
      "stateMutability": "nonpayable",
      "type": "constructor"
    },
    {
      "payable": true,
      "stateMutability": "payable",
      "type": "fallback"
    },
    {
      "anonymous": false,
      "inputs": [
        {
          "indexed": false,
          "name": "closingBlock",
          "type": "uint256"
        }
      ],
      "name": "RoundStarted",
      "type": "event"
    }
  ],
  "bytecode": "0x606060405266b1a2bc2ec5000060055560646006556000600a556207a120601055341561002b57600080fd5b33600860006101000a81548173ffffffffffffffffffffffffffffffffffffffff021916908373ffffffffffffffffffffffffffffffffffffffff1602179055506000600d60006101000a81548160ff0219169083600281111561008b57fe5b0217905550736f485c8bf6fc43ea212e93bbf8ce046c7f1cb4756000806101000a81548173ffffffffffffffffffffffffffffffffffffffff021916908373ffffffffffffffffffffffffffffffffffffffff1602179055506129d6806100f36000396000f3006060604052600436106100db576000357c0100000000000000000000000000000000000000000000000000000000900463ffffffff1680630c3f6acf146100dd5780630e543f421461011457806327dc297e1461013d57806338bbfa50146101a75780633ccfd60b14610254578063403658521461026957806350b447121461027e5780638da5cb5b146102e15780639507d39a146103365780639cb8a26a146103a7578063c10c3546146103bc578063c33acf2f146103f5578063ca3c23331461041e578063d98645c514610428578063e8c33f6314610459575b005b34156100e857600080fd5b6100f06104aa565b6040518082600281111561010057fe5b60ff16815260200191505060405180910390f35b341561011f57600080fd5b6101276104bd565b6040518082815260200191505060405180910390f35b341561014857600080fd5b6101a560048080356000191690602001909190803590602001908201803590602001908080601f016020809104026020016040519081016040528093929190818152602001838380828437820191505050505050919050506104c3565b005b34156101b257600080fd5b61025260048080356000191690602001909190803590602001908201803590602001908080601f0160208091040260200160405190810160405280939291908181526020018383808284378201915050505050509190803590602001908201803590602001908080601f016020809104026020016040519081016040528093929190818152602001838380828437820191505050505050919050506105f1565b005b341561025f57600080fd5b6102676105f6565b005b341561027457600080fd5b61027c610760565b005b341561028957600080fd5b61029f6004808035906020019091905050610816565b604051808273ffffffffffffffffffffffffffffffffffffffff1673ffffffffffffffffffffffffffffffffffffffff16815260200191505060405180910390f35b34156102ec57600080fd5b6102f4610849565b604051808273ffffffffffffffffffffffffffffffffffffffff1673ffffffffffffffffffffffffffffffffffffffff16815260200191505060405180910390f35b341561034157600080fd5b610357600480803590602001909190505061086f565b604051808481526020018381526020018273ffffffffffffffffffffffffffffffffffffffff1673ffffffffffffffffffffffffffffffffffffffff168152602001935050505060405180910390f35b34156103b257600080fd5b6103ba6108bb565b005b34156103c757600080fd5b6103f3600480803573ffffffffffffffffffffffffffffffffffffffff16906020019091905050610952565b005b341561040057600080fd5b6104086109f2565b6040518082815260200191505060405180910390f35b6104266109f8565b005b341561043357600080fd5b61043b610c06565b60405180826000191660001916815260200191505060405180910390f35b341561046457600080fd5b610490600480803573ffffffffffffffffffffffffffffffffffffffff16906020019091905050610c0c565b604051808215151515815260200191505060405180910390f35b600d60009054906101000a900460ff1681565b600e5481565b6104cb610c2c565b73ffffffffffffffffffffffffffffffffffffffff163373ffffffffffffffffffffffffffffffffffffffff1614151561050457600080fd5b60028081111561051057fe5b600d60009054906101000a900460ff16600281111561052b57fe5b141561053e57610539610f42565b6105ed565b61054781610ff3565b600e819055506001600b600060096000600e54815260200190815260200160002060009054906101000a900473ffffffffffffffffffffffffffffffffffffffff1673ffffffffffffffffffffffffffffffffffffffff1673ffffffffffffffffffffffffffffffffffffffff16815260200190815260200160002060006101000a81548160ff021916908315150217905550669c51c4521e0000600a5402600c819055505b5050565b505050565b60096000600e54815260200190815260200160002060009054906101000a900473ffffffffffffffffffffffffffffffffffffffff1673ffffffffffffffffffffffffffffffffffffffff163373ffffffffffffffffffffffffffffffffffffffff1614151561066557600080fd5b60011515600b60003373ffffffffffffffffffffffffffffffffffffffff1673ffffffffffffffffffffffffffffffffffffffff16815260200190815260200160002060009054906101000a900460ff1615151415156106c457600080fd5b6000600b60003373ffffffffffffffffffffffffffffffffffffffff1673ffffffffffffffffffffffffffffffffffffffff16815260200190815260200160002060006101000a81548160ff0219169083151502179055503373ffffffffffffffffffffffffffffffffffffffff166108fc600c549081150290604051600060405180830381858888f19350505050151561075e57600080fd5b565b600860009054906101000a900473ffffffffffffffffffffffffffffffffffffffff1673ffffffffffffffffffffffffffffffffffffffff163373ffffffffffffffffffffffffffffffffffffffff161415156107bc57600080fd5b600060028111156107c957fe5b600d60009054906101000a900460ff1660028111156107e457fe5b1415156107f057600080fd5b6001600d60006101000a81548160ff0219169083600281111561080f57fe5b0217905550565b60096020528060005260406000206000915054906101000a900473ffffffffffffffffffffffffffffffffffffffff1681565b600860009054906101000a900473ffffffffffffffffffffffffffffffffffffffff1681565b6000806000600554600a546009600087815260200190815260200160002060009054906101000a900473ffffffffffffffffffffffffffffffffffffffff169250925092509193909250565b600860009054906101000a900473ffffffffffffffffffffffffffffffffffffffff1673ffffffffffffffffffffffffffffffffffffffff163373ffffffffffffffffffffffffffffffffffffffff1614151561091757600080fd5b600860009054906101000a900473ffffffffffffffffffffffffffffffffffffffff1673ffffffffffffffffffffffffffffffffffffffff16ff5b600860009054906101000a900473ffffffffffffffffffffffffffffffffffffffff1673ffffffffffffffffffffffffffffffffffffffff163373ffffffffffffffffffffffffffffffffffffffff161415156109ae57600080fd5b80600760006101000a81548173ffffffffffffffffffffffffffffffffffffffff021916908373ffffffffffffffffffffffffffffffffffffffff16021790555050565b600a5481565b6005543410151515610a0957600080fd5b60006002811115610a1657fe5b600d60009054906101000a900460ff166002811115610a3157fe5b14151515610a3e57600080fd5b6103e8600a54111515610b2757600a600081548092919060010191905055503360096000600a54815260200190815260200160002060006101000a81548173ffffffffffffffffffffffffffffffffffffffff021916908373ffffffffffffffffffffffffffffffffffffffff160217905550600760009054906101000a900473ffffffffffffffffffffffffffffffffffffffff1673ffffffffffffffffffffffffffffffffffffffff166108fc6064600a3402811515610afc57fe5b049081150290604051600060405180830381858888f193505050501515610b2257600080fd5b610bf0565b600a600081548092919060010191905055503360096000600a54815260200190815260200160002060006101000a81548173ffffffffffffffffffffffffffffffffffffffff021916908373ffffffffffffffffffffffffffffffffffffffff160217905550600760009054906101000a900473ffffffffffffffffffffffffffffffffffffffff1673ffffffffffffffffffffffffffffffffffffffff166108fc349081150290604051600060405180830381858888f193505050501515610bef57600080fd5b5b6003600a541415610c0457610c03611007565b5b565b600f5481565b600b6020528060005260406000206000915054906101000a900460ff1681565b6000806000809054906101000a900473ffffffffffffffffffffffffffffffffffffffff1673ffffffffffffffffffffffffffffffffffffffff161480610c9c57506000610c9a6000809054906101000a900473ffffffffffffffffffffffffffffffffffffffff166110a7565b145b15610cad57610cab60006110b2565b505b6000809054906101000a900473ffffffffffffffffffffffffffffffffffffffff1673ffffffffffffffffffffffffffffffffffffffff166338cc48316000604051602001526040518163ffffffff167c0100000000000000000000000000000000000000000000000000000000028152600401602060405180830381600087803b1515610d3a57600080fd5b6102c65a03f11515610d4b57600080fd5b5050506040518051905073ffffffffffffffffffffffffffffffffffffffff16600160009054906101000a900473ffffffffffffffffffffffffffffffffffffffff1673ffffffffffffffffffffffffffffffffffffffff16141515610e94576000809054906101000a900473ffffffffffffffffffffffffffffffffffffffff1673ffffffffffffffffffffffffffffffffffffffff166338cc48316000604051602001526040518163ffffffff167c0100000000000000000000000000000000000000000000000000000000028152600401602060405180830381600087803b1515610e3857600080fd5b6102c65a03f11515610e4957600080fd5b50505060405180519050600160006101000a81548173ffffffffffffffffffffffffffffffffffffffff021916908373ffffffffffffffffffffffffffffffffffffffff1602179055505b600160009054906101000a900473ffffffffffffffffffffffffffffffffffffffff1673ffffffffffffffffffffffffffffffffffffffff1663c281d19e6000604051602001526040518163ffffffff167c0100000000000000000000000000000000000000000000000000000000028152600401602060405180830381600087803b1515610f2257600080fd5b6102c65a03f11515610f3357600080fd5b50505060405180519050905090565b6000600d60006101000a81548160ff02191690836002811115610f6157fe5b0217905550610ff06040805190810160405280600c81526020017f576f6c6672616d416c7068610000000000000000000000000000000000000000815250610fe86040805190810160405280601581526020017f72616e646f6d206265747765656e203120616e64200000000000000000000000815250610fe3600a546110c3565b611215565b601054611262565b50565b60006110008260006117b2565b9050919050565b6002600d60006101000a81548160ff0219169083600281111561102657fe5b02179055506110a460146040805190810160405280600c81526020017f576f6c6672616d416c70686100000000000000000000000000000000000000008152506040805190810160405280600581526020017f35202b2033000000000000000000000000000000000000000000000000000000815250601054611aac565b50565b6000813b9050919050565b60006110bc611ffc565b9050919050565b6110cb6128dd565b6000806110d66128f1565b60008086141561111d576040805190810160405280600181526020017f3000000000000000000000000000000000000000000000000000000000000000815250945061120c565b8593505b600084141515611147578280600101935050600a8481151561113f57fe5b049350611121565b826040518059106111555750595b9080825280601f01601f191660200182016040525091506001830390505b60008614151561120857600a8681151561118957fe5b066030017f0100000000000000000000000000000000000000000000000000000000000000028282806001900393508151811015156111c457fe5b9060200101907effffffffffffffffffffffffffffffffffffffffffffffffffffffffffffff1916908160001a905350600a8681151561120057fe5b049550611173565b8194505b50505050919050565b61121d6128dd565b61125a838360206040519081016040528060008152506020604051908101604052806000815250602060405190810160405280600081525061248b565b905092915050565b60008060008060009054906101000a900473ffffffffffffffffffffffffffffffffffffffff1673ffffffffffffffffffffffffffffffffffffffff1614806112d4575060006112d26000809054906101000a900473ffffffffffffffffffffffffffffffffffffffff166110a7565b145b156112e5576112e360006110b2565b505b6000809054906101000a900473ffffffffffffffffffffffffffffffffffffffff1673ffffffffffffffffffffffffffffffffffffffff166338cc48316000604051602001526040518163ffffffff167c0100000000000000000000000000000000000000000000000000000000028152600401602060405180830381600087803b151561137257600080fd5b6102c65a03f1151561138357600080fd5b5050506040518051905073ffffffffffffffffffffffffffffffffffffffff16600160009054906101000a900473ffffffffffffffffffffffffffffffffffffffff1673ffffffffffffffffffffffffffffffffffffffff161415156114cc576000809054906101000a900473ffffffffffffffffffffffffffffffffffffffff1673ffffffffffffffffffffffffffffffffffffffff166338cc48316000604051602001526040518163ffffffff167c0100000000000000000000000000000000000000000000000000000000028152600401602060405180830381600087803b151561147057600080fd5b6102c65a03f1151561148157600080fd5b50505060405180519050600160006101000a81548173ffffffffffffffffffffffffffffffffffffffff021916908373ffffffffffffffffffffffffffffffffffffffff1602179055505b600160009054906101000a900473ffffffffffffffffffffffffffffffffffffffff1673ffffffffffffffffffffffffffffffffffffffff16632ef3accc86856000604051602001526040518363ffffffff167c01000000000000000000000000000000000000000000000000000000000281526004018080602001838152602001828103825284818151815260200191508051906020019080838360005b8381101561158657808201518184015260208101905061156b565b50505050905090810190601f1680156115b35780820380516001836020036101000a031916815260200191505b509350505050602060405180830381600087803b15156115d257600080fd5b6102c65a03f115156115e357600080fd5b505050604051805190509050823a02670de0b6b3a76400000181111561160f57600060010291506117aa565b600160009054906101000a900473ffffffffffffffffffffffffffffffffffffffff1673ffffffffffffffffffffffffffffffffffffffff1663c51be90f8260008888886000604051602001526040518663ffffffff167c0100000000000000000000000000000000000000000000000000000000028152600401808581526020018060200180602001848152602001838103835286818151815260200191508051906020019080838360005b838110156116d75780820151818401526020810190506116bc565b50505050905090810190601f1680156117045780820380516001836020036101000a031916815260200191505b50838103825285818151815260200191508051906020019080838360005b8381101561173d578082015181840152602081019050611722565b50505050905090810190601f16801561176a5780820380516001836020036101000a031916815260200191505b5096505050505050506020604051808303818588803b151561178b57600080fd5b6125ee5a03f1151561179c57600080fd5b505050506040518051905091505b509392505050565b60006117bc6128f1565b60008060008693506000925060009150600090505b8351811015611a8d5760307f010000000000000000000000000000000000000000000000000000000000000002848281518110151561180c57fe5b9060200101517f010000000000000000000000000000000000000000000000000000000000000090047f0100000000000000000000000000000000000000000000000000000000000000027effffffffffffffffffffffffffffffffffffffffffffffffffffffffffffff191610158015611924575060397f01000000000000000000000000000000000000000000000000000000000000000284828151811015156118b457fe5b9060200101517f010000000000000000000000000000000000000000000000000000000000000090047f0100000000000000000000000000000000000000000000000000000000000000027effffffffffffffffffffffffffffffffffffffffffffffffffffffffffffff191611155b156119d557811561194757600086141561193d57611a8d565b8580600190039650505b600a830292506030848281518110151561195d57fe5b9060200101517f010000000000000000000000000000000000000000000000000000000000000090047f0100000000000000000000000000000000000000000000000000000000000000027f010000000000000000000000000000000000000000000000000000000000000090040383019250611a80565b602e7f0100000000000000000000000000000000000000000000000000000000000000028482815181101515611a0757fe5b9060200101517f010000000000000000000000000000000000000000000000000000000000000090047f0100000000000000000000000000000000000000000000000000000000000000027effffffffffffffffffffffffffffffffffffffffffffffffffffffffffffff19161415611a7f57600191505b5b80806001019150506117d1565b6000861115611a9f5785600a0a830292505b8294505050505092915050565b60008060008060009054906101000a900473ffffffffffffffffffffffffffffffffffffffff1673ffffffffffffffffffffffffffffffffffffffff161480611b1e57506000611b1c6000809054906101000a900473ffffffffffffffffffffffffffffffffffffffff166110a7565b145b15611b2f57611b2d60006110b2565b505b6000809054906101000a900473ffffffffffffffffffffffffffffffffffffffff1673ffffffffffffffffffffffffffffffffffffffff166338cc48316000604051602001526040518163ffffffff167c0100000000000000000000000000000000000000000000000000000000028152600401602060405180830381600087803b1515611bbc57600080fd5b6102c65a03f11515611bcd57600080fd5b5050506040518051905073ffffffffffffffffffffffffffffffffffffffff16600160009054906101000a900473ffffffffffffffffffffffffffffffffffffffff1673ffffffffffffffffffffffffffffffffffffffff16141515611d16576000809054906101000a900473ffffffffffffffffffffffffffffffffffffffff1673ffffffffffffffffffffffffffffffffffffffff166338cc48316000604051602001526040518163ffffffff167c0100000000000000000000000000000000000000000000000000000000028152600401602060405180830381600087803b1515611cba57600080fd5b6102c65a03f11515611ccb57600080fd5b50505060405180519050600160006101000a81548173ffffffffffffffffffffffffffffffffffffffff021916908373ffffffffffffffffffffffffffffffffffffffff1602179055505b600160009054906101000a900473ffffffffffffffffffffffffffffffffffffffff1673ffffffffffffffffffffffffffffffffffffffff16632ef3accc86856000604051602001526040518363ffffffff167c01000000000000000000000000000000000000000000000000000000000281526004018080602001838152602001828103825284818151815260200191508051906020019080838360005b83811015611dd0578082015181840152602081019050611db5565b50505050905090810190601f168015611dfd5780820380516001836020036101000a031916815260200191505b509350505050602060405180830381600087803b1515611e1c57600080fd5b6102c65a03f11515611e2d57600080fd5b505050604051805190509050823a02670de0b6b3a764000001811115611e595760006001029150611ff3565b600160009054906101000a900473ffffffffffffffffffffffffffffffffffffffff1673ffffffffffffffffffffffffffffffffffffffff1663c51be90f82888888886000604051602001526040518663ffffffff167c0100000000000000000000000000000000000000000000000000000000028152600401808581526020018060200180602001848152602001838103835286818151815260200191508051906020019080838360005b83811015611f20578082015181840152602081019050611f05565b50505050905090810190601f168015611f4d5780820380516001836020036101000a031916815260200191505b50838103825285818151815260200191508051906020019080838360005b83811015611f86578082015181840152602081019050611f6b565b50505050905090810190601f168015611fb35780820380516001836020036101000a031916815260200191505b5096505050505050506020604051808303818588803b1515611fd457600080fd5b6125ee5a03f11515611fe557600080fd5b505050506040518051905091505b50949350505050565b60008061201c731d3b2638a7cc9f2cb3d298a3da7a90b67e5506ed6110a7565b11156120bd57731d3b2638a7cc9f2cb3d298a3da7a90b67e5506ed6000806101000a81548173ffffffffffffffffffffffffffffffffffffffff021916908373ffffffffffffffffffffffffffffffffffffffff1602179055506120b46040805190810160405280600b81526020017f6574685f6d61696e6e65740000000000000000000000000000000000000000008152506128c3565b60019050612488565b60006120dc73c03a2615d5efaf5f49f60b7bb6583eaec212fdf16110a7565b111561217d5773c03a2615d5efaf5f49f60b7bb6583eaec212fdf16000806101000a81548173ffffffffffffffffffffffffffffffffffffffff021916908373ffffffffffffffffffffffffffffffffffffffff1602179055506121746040805190810160405280600c81526020017f6574685f726f707374656e3300000000000000000000000000000000000000008152506128c3565b60019050612488565b600061219c73b7a07bcf2ba2f2703b24c0691b5278999c59ac7e6110a7565b111561223d5773b7a07bcf2ba2f2703b24c0691b5278999c59ac7e6000806101000a81548173ffffffffffffffffffffffffffffffffffffffff021916908373ffffffffffffffffffffffffffffffffffffffff1602179055506122346040805190810160405280600981526020017f6574685f6b6f76616e00000000000000000000000000000000000000000000008152506128c3565b60019050612488565b600061225c73146500cfd35b22e4a392fe0adc06de1a1368ed486110a7565b11156122fd5773146500cfd35b22e4a392fe0adc06de1a1368ed486000806101000a81548173ffffffffffffffffffffffffffffffffffffffff021916908373ffffffffffffffffffffffffffffffffffffffff1602179055506122f46040805190810160405280600b81526020017f6574685f72696e6b6562790000000000000000000000000000000000000000008152506128c3565b60019050612488565b600061231c736f485c8bf6fc43ea212e93bbf8ce046c7f1cb4756110a7565b111561237f57736f485c8bf6fc43ea212e93bbf8ce046c7f1cb4756000806101000a81548173ffffffffffffffffffffffffffffffffffffffff021916908373ffffffffffffffffffffffffffffffffffffffff16021790555060019050612488565b600061239e7320e12a1f859b3feae5fb2a0a32c18f5a65555bbf6110a7565b1115612401577320e12a1f859b3feae5fb2a0a32c18f5a65555bbf6000806101000a81548173ffffffffffffffffffffffffffffffffffffffff021916908373ffffffffffffffffffffffffffffffffffffffff16021790555060019050612488565b60006124207351efaf4c8b3c9afbd5ab9f4bbc82784ab6ef8faa6110a7565b1115612483577351efaf4c8b3c9afbd5ab9f4bbc82784ab6ef8faa6000806101000a81548173ffffffffffffffffffffffffffffffffffffffff021916908373ffffffffffffffffffffffffffffffffffffffff16021790555060019050612488565b600090505b90565b6124936128dd565b61249b6128f1565b6124a36128f1565b6124ab6128f1565b6124b36128f1565b6124bb6128f1565b6124c36128dd565b6124cb6128f1565b6000808e98508d97508c96508b95508a94508451865188518a518c51010101016040518059106124f85750595b9080825280601f01601f1916602001820160405250935083925060009150600090505b88518110156125ce57888181518110151561253257fe5b9060200101517f010000000000000000000000000000000000000000000000000000000000000090047f010000000000000000000000000000000000000000000000000000000000000002838380600101945081518110151561259157fe5b9060200101907effffffffffffffffffffffffffffffffffffffffffffffffffffffffffffff1916908160001a905350808060010191505061251b565b600090505b87518110156126865787818151811015156125ea57fe5b9060200101517f010000000000000000000000000000000000000000000000000000000000000090047f010000000000000000000000000000000000000000000000000000000000000002838380600101945081518110151561264957fe5b9060200101907effffffffffffffffffffffffffffffffffffffffffffffffffffffffffffff1916908160001a90535080806001019150506125d3565b600090505b865181101561273e5786818151811015156126a257fe5b9060200101517f010000000000000000000000000000000000000000000000000000000000000090047f010000000000000000000000000000000000000000000000000000000000000002838380600101945081518110151561270157fe5b9060200101907effffffffffffffffffffffffffffffffffffffffffffffffffffffffffffff1916908160001a905350808060010191505061268b565b600090505b85518110156127f657858181518110151561275a57fe5b9060200101517f010000000000000000000000000000000000000000000000000000000000000090047f01000000000000000000000000000000000000000000000000000000000000000283838060010194508151811015156127b957fe5b9060200101907effffffffffffffffffffffffffffffffffffffffffffffffffffffffffffff1916908160001a9053508080600101915050612743565b600090505b84518110156128ae57848181518110151561281257fe5b9060200101517f010000000000000000000000000000000000000000000000000000000000000090047f010000000000000000000000000000000000000000000000000000000000000002838380600101945081518110151561287157fe5b9060200101907effffffffffffffffffffffffffffffffffffffffffffffffffffffffffffff1916908160001a90535080806001019150506127fb565b82995050505050505050505095945050505050565b80600290805190602001906128d9929190612905565b5050565b602060405190810160405280600081525090565b602060405190810160405280600081525090565b828054600181600116156101000203166002900490600052602060002090601f016020900481019282601f1061294657805160ff1916838001178555612974565b82800160010185558215612974579182015b82811115612973578251825591602001919060010190612958565b5b5090506129819190612985565b5090565b6129a791905b808211156129a357600081600090555060010161298b565b5090565b905600a165627a7a72305820d0e109b33b5d29eda435dddc06345e54fccaa4c0c1ac822bd902ac8cd15ed1c80029",
  "source": "pragma solidity ^0.4.17;\n\n//import \"github.com/oraclize/ethereum-api/oraclizeAPI.sol\";\nimport \"./oraclizeAPI.sol\";\n\n\n\ncontract Loto is usingOraclize {\n    uint price = 50 finney;\n    uint256 minUsers = 100;\n\n    address private escrow;\n    address public owner;\n    mapping(uint256 => address) public tickets;\n    uint256 public ticketsN = 0;\n    mapping(address => bool) public rewardClaimable;\n    uint private reward;\n    //uint private jackpot;\n\n    enum RoundState {noGame, roundStarted, timerStarted}\n    RoundState public currentState;\n\n    uint256 public winnerN;\n    bytes32 public oraclizeID;\n\n    uint256 gas = 500000;\n\n    modifier ownerOnly {\n        if (msg.sender != owner) \n        revert();\n        _;\n    }\n    //DEPRECATE\n    event RoundStarted(uint256 closingBlock);\n\n    function Loto() public {\n        owner = msg.sender;\n        currentState = RoundState.noGame;\n        OAR = OraclizeAddrResolverI(0x6f485C8BF6fc43eA212E93BBF8ce046C7f1cb475);\n    }\n\n    //DEPRECATED, SHOULD BE SET ONCE ON DEPLOYING IN CONSTRUCTOR\n    function setEscrow(address _escrow) ownerOnly public {\n        escrow = _escrow;\n    }\n\n    function roundStart() public ownerOnly {\n        //DEPRECATE THE F EVENT\n        //RoundStarted(block.number + ROUND_LENGTH);\n        require(currentState == RoundState.noGame);\n        currentState = RoundState.roundStarted;\n    }\n\n    //Main and only accessible function to clients\n    function EnterRound() payable public {\n        require(msg.value >= price);\n        require(currentState != RoundState.noGame);\n            if (ticketsN <= 1000) {\n                ticketsN++;\n                tickets[ticketsN] = msg.sender;\n                escrow.transfer((msg.value * 10)/100);\n            } else {\n                ticketsN++;\n                tickets[ticketsN] = msg.sender;\n                escrow.transfer(msg.value);\n                //event maxUserReached(...);\n            }\n            if(ticketsN == 3) {\n                //ALL YOU HAD TO DO WAS TO START THE DAMN TIMER CJ\n                setTimer();\n            }\n    }\n\n    function getWin() private {\n        currentState = RoundState.noGame;\n        oraclize_query(\"WolframAlpha\", strConcat(\"random between 1 and \", uint2str(ticketsN)),gas);\n    }\n\n    function __callback(bytes32 _oraclizeID, string _result) {\n        require(msg.sender == oraclize_cbAddress());\n        //better check with Query ID but nah, it'll be easier to demonstrate\n        //CHECK WITH QUERY ID\n        if(currentState == RoundState.timerStarted) {\n            getWin();\n        } else {\n            winnerN = parseInt(_result);\n            rewardClaimable[tickets[winnerN]] = true;\n            //CALCULATE REWARD, 10% - escrow, 2% - ours\n            reward = ticketsN * 44 finney;\n        }\n    }\n\n    function setTimer() private {\n        //Move to server side, could be better\n        currentState = RoundState.timerStarted;\n        oraclize_query(20/*864000*/,\"WolframAlpha\",\"5 + 3\", gas);\n    }\n    //Pull over push goes here\n    function withdraw() public {\n        //JUST LET HIM TAKE MONEY, JACKPOT SEPARATELLY\n        //Looks bad\n        require(msg.sender == tickets[winnerN]);\n        require(rewardClaimable[msg.sender] == true);\n        rewardClaimable[msg.sender] = false;\n        msg.sender.transfer(reward);\n    }\n\n    //You don't need it, there're public accessors, just for UI sake\n    function get(uint256 tick) constant public returns (uint,uint256,address) {\n        return (price,ticketsN,tickets[tick]);\n    }\n\n    function selfDestruct() ownerOnly {\n        selfdestruct(owner);\n    }\n\n    function () payable {    \n    }\n}",
  "sourcePath": "/home/andrew/truffleTest/apptest/appt2/contracts/Loto.sol",
  "compiler": {
    "name": "solc",
    "version": "0.4.18+commit.9cf6e910.Emscripten.clang"
  },
  "schemaVersion": "1.0.1",
  "updatedAt": "2018-03-17T06:22:57.368Z"
}